{
  "_format": "hh-sol-artifact-1",
  "contractName": "MacroGuard",
  "sourceName": "contracts/MacroGuard.sol",
  "abi": [
    {
      "inputs": [
        {
          "internalType": "address",
          "name": "token",
          "type": "address"
        },
        {
          "internalType": "string",
          "name": "_uri",
          "type": "string"
        }
      ],
      "stateMutability": "nonpayable",
      "type": "constructor"
    },
    {
      "inputs": [
        {
          "internalType": "address",
          "name": "sender",
          "type": "address"
        },
        {
          "internalType": "uint256",
          "name": "balance",
          "type": "uint256"
        },
        {
          "internalType": "uint256",
          "name": "needed",
          "type": "uint256"
        },
        {
          "internalType": "uint256",
          "name": "tokenId",
          "type": "uint256"
        }
      ],
      "name": "ERC1155InsufficientBalance",
      "type": "error"
    },
    {
      "inputs": [
        {
          "internalType": "address",
          "name": "approver",
          "type": "address"
        }
      ],
      "name": "ERC1155InvalidApprover",
      "type": "error"
    },
    {
      "inputs": [
        {
          "internalType": "uint256",
          "name": "idsLength",
          "type": "uint256"
        },
        {
          "internalType": "uint256",
          "name": "valuesLength",
          "type": "uint256"
        }
      ],
      "name": "ERC1155InvalidArrayLength",
      "type": "error"
    },
    {
      "inputs": [
        {
          "internalType": "address",
          "name": "operator",
          "type": "address"
        }
      ],
      "name": "ERC1155InvalidOperator",
      "type": "error"
    },
    {
      "inputs": [
        {
          "internalType": "address",
          "name": "receiver",
          "type": "address"
        }
      ],
      "name": "ERC1155InvalidReceiver",
      "type": "error"
    },
    {
      "inputs": [
        {
          "internalType": "address",
          "name": "sender",
          "type": "address"
        }
      ],
      "name": "ERC1155InvalidSender",
      "type": "error"
    },
    {
      "inputs": [
        {
          "internalType": "address",
          "name": "operator",
          "type": "address"
        },
        {
          "internalType": "address",
          "name": "owner",
          "type": "address"
        }
      ],
      "name": "ERC1155MissingApprovalForAll",
      "type": "error"
    },
    {
      "anonymous": false,
      "inputs": [
        {
          "indexed": true,
          "internalType": "address",
          "name": "account",
          "type": "address"
        },
        {
          "indexed": true,
          "internalType": "address",
          "name": "operator",
          "type": "address"
        },
        {
          "indexed": false,
          "internalType": "bool",
          "name": "approved",
          "type": "bool"
        }
      ],
      "name": "ApprovalForAll",
      "type": "event"
    },
    {
      "anonymous": false,
      "inputs": [
        {
          "indexed": false,
          "internalType": "uint256",
          "name": "id",
          "type": "uint256"
        },
        {
          "indexed": false,
          "internalType": "address",
          "name": "provider",
          "type": "address"
        }
      ],
      "name": "PolicyCreated",
      "type": "event"
    },
    {
      "anonymous": false,
      "inputs": [
        {
          "indexed": false,
          "internalType": "uint256",
          "name": "id",
          "type": "uint256"
        },
        {
          "indexed": false,
          "internalType": "address",
          "name": "buyer",
          "type": "address"
        },
        {
          "indexed": false,
          "internalType": "uint256",
          "name": "premium",
          "type": "uint256"
        }
      ],
      "name": "PolicyPurchased",
      "type": "event"
    },
    {
      "anonymous": false,
      "inputs": [
        {
          "indexed": false,
          "internalType": "uint256",
          "name": "policyId",
          "type": "uint256"
        },
        {
          "indexed": false,
          "internalType": "enum IMacroGuard.Status",
          "name": "newStatus",
          "type": "uint8"
        }
      ],
      "name": "PolicyStatusUpdated",
      "type": "event"
    },
    {
      "anonymous": false,
      "inputs": [
        {
          "indexed": true,
          "internalType": "address",
          "name": "operator",
          "type": "address"
        },
        {
          "indexed": true,
          "internalType": "address",
          "name": "from",
          "type": "address"
        },
        {
          "indexed": true,
          "internalType": "address",
          "name": "to",
          "type": "address"
        },
        {
          "indexed": false,
          "internalType": "uint256[]",
          "name": "ids",
          "type": "uint256[]"
        },
        {
          "indexed": false,
          "internalType": "uint256[]",
          "name": "values",
          "type": "uint256[]"
        }
      ],
      "name": "TransferBatch",
      "type": "event"
    },
    {
      "anonymous": false,
      "inputs": [
        {
          "indexed": true,
          "internalType": "address",
          "name": "operator",
          "type": "address"
        },
        {
          "indexed": true,
          "internalType": "address",
          "name": "from",
          "type": "address"
        },
        {
          "indexed": true,
          "internalType": "address",
          "name": "to",
          "type": "address"
        },
        {
          "indexed": false,
          "internalType": "uint256",
          "name": "id",
          "type": "uint256"
        },
        {
          "indexed": false,
          "internalType": "uint256",
          "name": "value",
          "type": "uint256"
        }
      ],
      "name": "TransferSingle",
      "type": "event"
    },
    {
      "anonymous": false,
      "inputs": [
        {
          "indexed": false,
          "internalType": "string",
          "name": "value",
          "type": "string"
        },
        {
          "indexed": true,
          "internalType": "uint256",
          "name": "id",
          "type": "uint256"
        }
      ],
      "name": "URI",
      "type": "event"
    },
    {
      "inputs": [
        {
          "components": [
            {
              "internalType": "string",
              "name": "indicator",
              "type": "string"
            },
            {
              "internalType": "uint256",
              "name": "value",
              "type": "uint256"
            }
          ],
          "internalType": "struct DataTransportObject",
          "name": "dto",
          "type": "tuple"
        }
      ],
      "name": "abiSignatureHack",
      "outputs": [],
      "stateMutability": "pure",
      "type": "function"
    },
    {
      "inputs": [
        {
          "internalType": "address",
          "name": "account",
          "type": "address"
        },
        {
          "internalType": "uint256",
          "name": "id",
          "type": "uint256"
        }
      ],
      "name": "balanceOf",
      "outputs": [
        {
          "internalType": "uint256",
          "name": "",
          "type": "uint256"
        }
      ],
      "stateMutability": "view",
      "type": "function"
    },
    {
      "inputs": [
        {
          "internalType": "address[]",
          "name": "accounts",
          "type": "address[]"
        },
        {
          "internalType": "uint256[]",
          "name": "ids",
          "type": "uint256[]"
        }
      ],
      "name": "balanceOfBatch",
      "outputs": [
        {
          "internalType": "uint256[]",
          "name": "",
          "type": "uint256[]"
        }
      ],
      "stateMutability": "view",
      "type": "function"
    },
    {
      "inputs": [
        {
          "internalType": "uint256",
          "name": "id",
          "type": "uint256"
        }
      ],
      "name": "buyPolicy",
      "outputs": [],
      "stateMutability": "nonpayable",
      "type": "function"
    },
    {
      "inputs": [
        {
          "internalType": "uint256",
          "name": "premium",
          "type": "uint256"
        },
        {
          "internalType": "uint256",
          "name": "noOfPolicies",
          "type": "uint256"
        },
        {
          "internalType": "uint256",
          "name": "coverage",
          "type": "uint256"
        },
        {
          "internalType": "uint256",
          "name": "strikePrice",
          "type": "uint256"
        },
        {
          "internalType": "uint256",
          "name": "startDate",
          "type": "uint256"
        },
        {
          "internalType": "uint256",
          "name": "period",
          "type": "uint256"
        },
        {
          "internalType": "bool",
          "name": "isHigher",
          "type": "bool"
        },
        {
          "internalType": "string",
          "name": "indicator",
          "type": "string"
        }
      ],
      "name": "createPolicy",
      "outputs": [
        {
          "internalType": "uint256",
          "name": "",
          "type": "uint256"
        }
      ],
      "stateMutability": "nonpayable",
      "type": "function"
    },
    {
      "inputs": [
        {
          "internalType": "uint256",
          "name": "id",
          "type": "uint256"
        }
      ],
      "name": "expirePolicy",
      "outputs": [],
      "stateMutability": "nonpayable",
      "type": "function"
    },
    {
      "inputs": [],
      "name": "getCurrentPolicyId",
      "outputs": [
        {
          "internalType": "uint256",
          "name": "",
          "type": "uint256"
        }
      ],
      "stateMutability": "view",
      "type": "function"
    },
    {
      "inputs": [
        {
          "internalType": "string",
          "name": "indicator",
          "type": "string"
        }
      ],
      "name": "getIndicatorValue",
      "outputs": [
        {
          "internalType": "uint256",
          "name": "",
          "type": "uint256"
        }
      ],
      "stateMutability": "view",
      "type": "function"
    },
    {
      "inputs": [
        {
          "internalType": "uint256",
          "name": "id",
          "type": "uint256"
        }
      ],
      "name": "getPolicy",
      "outputs": [
        {
          "components": [
            {
              "internalType": "uint256",
              "name": "id",
              "type": "uint256"
            },
            {
              "internalType": "address",
              "name": "provider",
              "type": "address"
            },
            {
              "internalType": "uint256",
              "name": "premium",
              "type": "uint256"
            },
            {
              "internalType": "uint256",
              "name": "coverage",
              "type": "uint256"
            },
            {
              "internalType": "enum IMacroGuard.Status",
              "name": "status",
              "type": "uint8"
            },
            {
              "internalType": "uint256",
              "name": "strikePrice",
              "type": "uint256"
            },
            {
              "internalType": "uint256",
              "name": "startDate",
              "type": "uint256"
            },
            {
              "internalType": "uint256",
              "name": "endDate",
              "type": "uint256"
            },
            {
              "internalType": "uint256",
              "name": "currentSupply",
              "type": "uint256"
            },
            {
              "internalType": "uint256",
              "name": "totalSupply",
              "type": "uint256"
            },
            {
              "internalType": "string",
              "name": "indicator",
              "type": "string"
            },
            {
              "internalType": "bool",
              "name": "isHigher",
              "type": "bool"
            }
          ],
          "internalType": "struct IMacroGuard.Policy",
          "name": "",
          "type": "tuple"
        }
      ],
      "stateMutability": "view",
      "type": "function"
    },
    {
      "inputs": [
        {
          "internalType": "address",
          "name": "user",
          "type": "address"
        }
      ],
      "name": "getTokensOfUser",
      "outputs": [
        {
          "internalType": "uint256[]",
          "name": "",
          "type": "uint256[]"
        }
      ],
      "stateMutability": "view",
      "type": "function"
    },
    {
      "inputs": [
        {
          "internalType": "address",
          "name": "account",
          "type": "address"
        },
        {
          "internalType": "address",
          "name": "operator",
          "type": "address"
        }
      ],
      "name": "isApprovedForAll",
      "outputs": [
        {
          "internalType": "bool",
          "name": "",
          "type": "bool"
        }
      ],
      "stateMutability": "view",
      "type": "function"
    },
    {
      "inputs": [
        {
          "internalType": "uint256",
          "name": "id",
          "type": "uint256"
        }
      ],
      "name": "redeemPolicy",
      "outputs": [],
      "stateMutability": "nonpayable",
      "type": "function"
    },
    {
      "inputs": [
        {
          "internalType": "address",
          "name": "from",
          "type": "address"
        },
        {
          "internalType": "address",
          "name": "to",
          "type": "address"
        },
        {
          "internalType": "uint256[]",
          "name": "ids",
          "type": "uint256[]"
        },
        {
          "internalType": "uint256[]",
          "name": "values",
          "type": "uint256[]"
        },
        {
          "internalType": "bytes",
          "name": "data",
          "type": "bytes"
        }
      ],
      "name": "safeBatchTransferFrom",
      "outputs": [],
      "stateMutability": "nonpayable",
      "type": "function"
    },
    {
      "inputs": [
        {
          "internalType": "address",
          "name": "from",
          "type": "address"
        },
        {
          "internalType": "address",
          "name": "to",
          "type": "address"
        },
        {
          "internalType": "uint256",
          "name": "id",
          "type": "uint256"
        },
        {
          "internalType": "uint256",
          "name": "value",
          "type": "uint256"
        },
        {
          "internalType": "bytes",
          "name": "data",
          "type": "bytes"
        }
      ],
      "name": "safeTransferFrom",
      "outputs": [],
      "stateMutability": "nonpayable",
      "type": "function"
    },
    {
      "inputs": [
        {
          "internalType": "address",
          "name": "operator",
          "type": "address"
        },
        {
          "internalType": "bool",
          "name": "approved",
          "type": "bool"
        }
      ],
      "name": "setApprovalForAll",
      "outputs": [],
      "stateMutability": "nonpayable",
      "type": "function"
    },
    {
      "inputs": [
        {
          "internalType": "bytes4",
          "name": "interfaceId",
          "type": "bytes4"
        }
      ],
      "name": "supportsInterface",
      "outputs": [
        {
          "internalType": "bool",
          "name": "",
          "type": "bool"
        }
      ],
      "stateMutability": "view",
      "type": "function"
    },
    {
      "inputs": [
        {
          "components": [
            {
              "internalType": "bytes32[]",
              "name": "merkleProof",
              "type": "bytes32[]"
            },
            {
              "components": [
                {
                  "internalType": "bytes32",
                  "name": "attestationType",
                  "type": "bytes32"
                },
                {
                  "internalType": "bytes32",
                  "name": "sourceId",
                  "type": "bytes32"
                },
                {
                  "internalType": "uint64",
                  "name": "votingRound",
                  "type": "uint64"
                },
                {
                  "internalType": "uint64",
                  "name": "lowestUsedTimestamp",
                  "type": "uint64"
                },
                {
                  "components": [
                    {
                      "internalType": "string",
                      "name": "url",
                      "type": "string"
                    },
                    {
                      "internalType": "string",
                      "name": "postprocessJq",
                      "type": "string"
                    },
                    {
                      "internalType": "string",
                      "name": "abi_signature",
                      "type": "string"
                    }
                  ],
                  "internalType": "struct IJsonApi.RequestBody",
                  "name": "requestBody",
                  "type": "tuple"
                },
                {
                  "components": [
                    {
                      "internalType": "bytes",
                      "name": "abi_encoded_data",
                      "type": "bytes"
                    }
                  ],
                  "internalType": "struct IJsonApi.ResponseBody",
                  "name": "responseBody",
                  "type": "tuple"
                }
              ],
              "internalType": "struct IJsonApi.Response",
              "name": "data",
              "type": "tuple"
            }
          ],
          "internalType": "struct IJsonApi.Proof",
          "name": "data",
          "type": "tuple"
        }
      ],
      "name": "updateData",
      "outputs": [],
      "stateMutability": "nonpayable",
      "type": "function"
    },
    {
      "inputs": [
        {
          "internalType": "uint256",
          "name": "",
          "type": "uint256"
        }
      ],
      "name": "uri",
      "outputs": [
        {
          "internalType": "string",
          "name": "",
          "type": "string"
        }
      ],
      "stateMutability": "view",
      "type": "function"
    }
  ],
  "bytecode": "0x608060405234801561001057600080fd5b50604051612bd0380380612bd083398101604081905261002f91610086565b8061003981610060565b5050600480546001600160a01b0319166001600160a01b03929092169190911790556102b9565b600261006c82826101fa565b5050565b634e487b7160e01b600052604160045260246000fd5b6000806040838503121561009957600080fd5b82516001600160a01b03811681146100b057600080fd5b602084810151919350906001600160401b03808211156100cf57600080fd5b818601915086601f8301126100e357600080fd5b8151818111156100f5576100f5610070565b604051601f8201601f19908116603f0116810190838211818310171561011d5761011d610070565b81604052828152898684870101111561013557600080fd5b600093505b82841015610157578484018601518185018701529285019261013a565b60008684830101528096505050505050509250929050565b600181811c9082168061018357607f821691505b6020821081036101a357634e487b7160e01b600052602260045260246000fd5b50919050565b601f8211156101f5576000816000526020600020601f850160051c810160208610156101d25750805b601f850160051c820191505b818110156101f1578281556001016101de565b5050505b505050565b81516001600160401b0381111561021357610213610070565b61022781610221845461016f565b846101a9565b602080601f83116001811461025c57600084156102445750858301515b600019600386901b1c1916600185901b1785556101f1565b600085815260208120601f198616915b8281101561028b5788860151825594840194600190910190840161026c565b50858210156102a95787850151600019600388901b60f8161c191681555b5050505050600190811b01905550565b612908806102c86000396000f3fe608060405234801561001057600080fd5b50600436106101155760003560e01c8063403e330f116100a25780638b4a5579116100715780638b4a557914610250578063a22cb46514610263578063e037ed6314610276578063e985e9c514610289578063f242432a1461029c57600080fd5b8063403e330f146101f95780634e1273f41461020a5780636f2bf79f1461022a57806379c888941461023d57600080fd5b80630e89341c116100e95780630e89341c1461018b5780632b07fce3146101ab5780632db0f47c146101cb5780632eb2c2d6146101d35780633037e4cd146101e657600080fd5b8062fdd58e1461011a57806301ffc9a7146101405780630b435145146101635780630cd922ce14610178575b600080fd5b61012d610128366004611d70565b6102af565b6040519081526020015b60405180910390f35b61015361014e366004611db0565b6102d7565b6040519015158152602001610137565b610176610171366004611dec565b610327565b005b610176610186366004611e28565b61050e565b61019e610199366004611e28565b6107b9565b6040516101379190611e91565b6101be6101b9366004611e28565b61084d565b6040516101379190611edc565b60035461012d565b6101766101e13660046120eb565b6109b3565b6101766101f4366004611e28565b610a1a565b610176610207366004611dec565b50565b61021d610218366004612194565b610c54565b604051610137919061228f565b61012d6102383660046122f8565b610d20565b61017661024b366004611e28565b6111cd565b61012d61025e36600461238a565b61141f565b6101766102713660046123cb565b61144a565b61021d610284366004612402565b611455565b61015361029736600461241d565b61158d565b6101766102aa366004612450565b6115bb565b6000818152602081815260408083206001600160a01b03861684529091529020545b92915050565b60006001600160e01b03198216636cdb3d1360e11b148061030857506001600160e01b031982166303a24d0760e21b145b806102d157506301ffc9a760e01b6001600160e01b03198316146102d1565b600061033660208301836124b4565b6103449060a08101906124d4565b61034e90806124ea565b81019061035b9190612530565b905080602001516005826000015160405161037691906125d4565b90815260405190819003602001812091909155815160009160069161039a916125d4565b90815260408051918290036020908101832080548083028501830190935282845291908301828280156103ec57602002820191906000526020600020905b8154815260200190600101908083116103d8575b505083519394506000925050505b81811015610507576000838281518110610416576104166125e6565b602090810291909101810151600081815260079092526040909120600b8101549192509060ff16156104a257806005015486602001511061049d5760048101805460ff191660019081179091556040517fddba6ca814ce3f0cb8c9b4b44e5e1891ef8c2857746e6b7453464abc1539209b91610494918591906125fc565b60405180910390a15b6104fd565b80600501548660200151116104fd5760048101805460ff191660019081179091556040517fddba6ca814ce3f0cb8c9b4b44e5e1891ef8c2857746e6b7453464abc1539209b916104f4918591906125fc565b60405180910390a15b50506001016103fa565b5050505050565b60008181526007602090815260408083208151610180810183528154815260018201546001600160a01b031693810193909352600280820154928401929092526003810154606084015260048101549091608084019160ff169081111561057757610577611ea4565b600281111561058857610588611ea4565b81526020016005820154815260200160068201548152602001600782015481526020016008820154815260200160098201548152602001600a820180546105ce90612610565b80601f01602080910402602001604051908101604052809291908181526020018280546105fa90612610565b80156106475780601f1061061c57610100808354040283529160200191610647565b820191906000526020600020905b81548152906001019060200180831161062a57829003601f168201915b5050509183525050600b919091015460ff1615156020909101529050600061066f33846102af565b116106b95760405162461bcd60e51b8152602060048201526015602482015274646f6e2774206861766520616e7920706f6c69637960581b60448201526064015b60405180910390fd5b6001816080015160028111156106d1576106d1611ea4565b1461072e5760405162461bcd60e51b815260206004820152602760248201527f6f6e6c7920636c61696d61626c6520706f6c69636965732063616e2062652072604482015266195919595b595960ca1b60648201526084016106b0565b61073a3383600161161a565b60048054606083015160405163a9059cbb60e01b8152339381019390935260248301526001600160a01b03169063a9059cbb906044015b6020604051808303816000875af1158015610790573d6000803e3d6000fd5b505050506040513d601f19601f820116820180604052508101906107b49190612644565b505050565b6060600280546107c890612610565b80601f01602080910402602001604051908101604052809291908181526020018280546107f490612610565b80156108415780601f1061081657610100808354040283529160200191610841565b820191906000526020600020905b81548152906001019060200180831161082457829003601f168201915b50505050509050919050565b610855611cd7565b6000828152600760209081526040918290208251610180810184528154815260018201546001600160a01b0316928101929092526002808201549383019390935260038101546060830152600481015491929091608084019160ff909116908111156108c3576108c3611ea4565b60028111156108d4576108d4611ea4565b81526020016005820154815260200160068201548152602001600782015481526020016008820154815260200160098201548152602001600a8201805461091a90612610565b80601f016020809104026020016040519081016040528092919081815260200182805461094690612610565b80156109935780601f1061096857610100808354040283529160200191610993565b820191906000526020600020905b81548152906001019060200180831161097657829003601f168201915b5050509183525050600b919091015460ff16151560209091015292915050565b336001600160a01b03861681148015906109d457506109d2868261158d565b155b15610a055760405163711bec9160e11b81526001600160a01b038083166004830152871660248201526044016106b0565b610a128686868686611682565b505050505050565b600081815260076020526040902060018101546001600160a01b03163314610a845760405162461bcd60e51b815260206004820152601d60248201527f6f6e6c792070726f76696465722063616e20616363657373207468697300000060448201526064016106b0565b4281600701541015610ba3576001600482015460ff166002811115610aab57610aab611ea4565b03610af85760405162461bcd60e51b815260206004820152601f60248201527f63616e277420657870697265206120636c61696d61626c6520706f6c6963790060448201526064016106b0565b60048101805460ff191660029081179091556040517fddba6ca814ce3f0cb8c9b4b44e5e1891ef8c2857746e6b7453464abc1539209b91610b3b918591906125fc565b60405180910390a16004546001820154600383015460098401546001600160a01b039384169363a9059cbb931691610b7291612677565b6040516001600160e01b031960e085901b1681526001600160a01b0390921660048301526024820152604401610771565b600081600801548260090154610bb9919061268e565b90506000818360030154610bcd9190612677565b60048054600186015460405163a9059cbb60e01b81526001600160a01b039182169381019390935260248301849052929350919091169063a9059cbb906044016020604051808303816000875af1158015610c2c573d6000803e3d6000fd5b505050506040513d601f19601f820116820180604052508101906105079190612644565b5050565b60608151835114610c855781518351604051635b05999160e01b8152600481019290925260248201526044016106b0565b600083516001600160401b03811115610ca057610ca0611f9c565b604051908082528060200260200182016040528015610cc9578160200160208202803683370190505b50905060005b8451811015610d1857602080820286010151610cf3906020808402870101516102af565b828281518110610d0557610d056125e6565b6020908102919091010152600101610ccf565b509392505050565b600081610d645760405162461bcd60e51b8152602060048201526012602482015271696e64696361746f7220697320656d70747960701b60448201526064016106b0565b60008a11610daa5760405162461bcd60e51b815260206004820152601360248201527207072656d69756d206d757374206265203e203606c1b60448201526064016106b0565b60008911610dfa5760405162461bcd60e51b815260206004820152601860248201527f6e6f4f66506f6c6963696573206d757374206265203e2030000000000000000060448201526064016106b0565b60008811610e415760405162461bcd60e51b81526020600482015260146024820152730636f766572616765206d757374206265203e20360641b60448201526064016106b0565b60008711610e915760405162461bcd60e51b815260206004820152601760248201527f737472696b655072696365206d757374206265203e203000000000000000000060448201526064016106b0565b60008511610ed65760405162461bcd60e51b81526020600482015260126024820152710706572696f64206d757374206265203e20360741b60448201526064016106b0565b6000610ee2898b612677565b600480546040516323b872dd60e01b81523392810192909252306024830152604482018390529192506001600160a01b03909116906323b872dd906064016020604051808303816000875af1158015610f3f573d6000803e3d6000fd5b505050506040513d601f19601f82011682018060405250810190610f639190612644565b610fa75760405162461bcd60e51b8152602060048201526015602482015274151bdad95b881d1c985b9cd9995c8819985a5b1959605a1b60448201526064016106b0565b6000610fb388426126a1565b604080516101808101825260035481523360208201529081018e9052606081018c905290915060808101600081526020018a81526020018281526020018883610ffc91906126a1565b8152602001600081526020018c815260200186868080601f0160208091040260200160405190810160405280939291908181526020018383808284376000920182905250938552505050881515602092830152600380548252600783526040918290208451815592840151600180850180546001600160a01b0319166001600160a01b03909316929092179091559184015160028085019190915560608501519184019190915560808401516004840180549193909260ff199092169184908111156110ca576110ca611ea4565b021790555060a0820151600582015560c0820151600682015560e0820151600782015561010082015160088201556101208201516009820155610140820151600a82019061111890826126fc565b506101609190910151600b909101805460ff191691151591909117905560405160069061114890879087906127bb565b9081526040805191829003602090810183206003805482546001810184556000938452928490209092019190915554835233908301527f692975d6d42aec50e0f6ff672acde3bf011e71355ed86dd49de0a1f533950cba910160405180910390a1600380549060006111b9836127cb565b909155509c9b505050505050505050505050565b600081815260076020526040902060098101546112245760405162461bcd60e51b8152602060048201526015602482015274141bdb1a58de48191bd95cc81b9bdd08195e1a5cdd605a1b60448201526064016106b0565b80600901548160080154106112725760405162461bcd60e51b81526020600482015260146024820152734578636565647320746f74616c20737570706c7960601b60448201526064016106b0565b428160060154116112c55760405162461bcd60e51b815260206004820152601960248201527f43616e277420627579207468697320706f6c696379207965740000000000000060448201526064016106b0565b60048054600183015460028401546040516323b872dd60e01b815233948101949094526001600160a01b03918216602485015260448401526000929116906323b872dd906064016020604051808303816000875af115801561132b573d6000803e3d6000fd5b505050506040513d601f19601f8201168201806040525081019061134f9190612644565b90508061139e5760405162461bcd60e51b815260206004820152601760248201527f5072656d69756d207472616e73666572206661696c656400000000000000000060448201526064016106b0565b60018260080160008282546113b391906126a1565b925050819055506113d633846001604051806020016040528060008152506116e2565b60028201546040805185815233602082015280820192909252517f95b12f586a70e031f18e62742c53fbfce9f4f2951ed9686b8aab253fc7cc39969181900360600190a1505050565b6000600583836040516114339291906127bb565b908152602001604051809103902054905092915050565b610c5033838361173f565b606060006003546001600160401b0381111561147357611473611f9c565b60405190808252806020026020018201604052801561149c578160200160208202803683370190505b5090506000805b6003548110156114f35760006114b986836102af565b11156114eb57808383815181106114d2576114d26125e6565b6020908102919091010152816114e7816127cb565b9250505b6001016114a3565b506000816001600160401b0381111561150e5761150e611f9c565b604051908082528060200260200182016040528015611537578160200160208202803683370190505b50905060005b8281101561158457838181518110611557576115576125e6565b6020026020010151828281518110611571576115716125e6565b602090810291909101015260010161153d565b50949350505050565b6001600160a01b03918216600090815260016020908152604080832093909416825291909152205460ff1690565b336001600160a01b03861681148015906115dc57506115da868261158d565b155b1561160d5760405163711bec9160e11b81526001600160a01b038083166004830152871660248201526044016106b0565b610a1286868686866117d5565b6001600160a01b03831661164357604051626a0d4560e21b8152600060048201526024016106b0565b604080516001808252602082018590528183019081526060820184905260a0820190925260006080820181815291929161050791879185908590611863565b6001600160a01b0384166116ac57604051632bfa23e760e11b8152600060048201526024016106b0565b6001600160a01b0385166116d557604051626a0d4560e21b8152600060048201526024016106b0565b6105078585858585611863565b6001600160a01b03841661170c57604051632bfa23e760e11b8152600060048201526024016106b0565b60408051600180825260208201869052818301908152606082018590526080820190925290610a12600087848487611863565b6001600160a01b0382166117685760405162ced3e160e81b8152600060048201526024016106b0565b6001600160a01b03838116600081815260016020908152604080832094871680845294825291829020805460ff191686151590811790915591519182527f17307eab39ab6107e8899845ad3d59bd9653f200f220920489ca2b5937696c31910160405180910390a3505050565b6001600160a01b0384166117ff57604051632bfa23e760e11b8152600060048201526024016106b0565b6001600160a01b03851661182857604051626a0d4560e21b8152600060048201526024016106b0565b6040805160018082526020820186905281830190815260608201859052608082019092529061185a8787848487611863565b50505050505050565b61186f858585856118b6565b6001600160a01b0384161561050757825133906001036118a857602084810151908401516118a1838989858589611aca565b5050610a12565b610a12818787878787611bee565b80518251146118e55781518151604051635b05999160e01b8152600481019290925260248201526044016106b0565b3360005b83518110156119eb576020818102858101820151908501909101516001600160a01b0388161561199c576000828152602081815260408083206001600160a01b038c16845290915290205481811015611975576040516303dee4c560e01b81526001600160a01b038a1660048201526024810182905260448101839052606481018490526084016106b0565b6000838152602081815260408083206001600160a01b038d16845290915290209082900390555b6001600160a01b038716156119e1576000828152602081815260408083206001600160a01b038b168452909152812080548392906119db9084906126a1565b90915550505b50506001016118e9565b508251600103611a6c5760208301516000906020840151909150856001600160a01b0316876001600160a01b0316846001600160a01b03167fc3d58168c5ae7397731d063d5bbf3d657854427343f4c083240f7aacaa2d0f628585604051611a5d929190918252602082015260400190565b60405180910390a45050610507565b836001600160a01b0316856001600160a01b0316826001600160a01b03167f4a39dc06d4c0dbc64b70af90fd698a233a518aa5d07e595d983b8c0526c8f7fb8686604051611abb9291906127e4565b60405180910390a45050505050565b6001600160a01b0384163b15610a125760405163f23a6e6160e01b81526001600160a01b0385169063f23a6e6190611b0e9089908990889088908890600401612812565b6020604051808303816000875af1925050508015611b49575060408051601f3d908101601f19168201909252611b4691810190612857565b60015b611bb2573d808015611b77576040519150601f19603f3d011682016040523d82523d6000602084013e611b7c565b606091505b508051600003611baa57604051632bfa23e760e11b81526001600160a01b03861660048201526024016106b0565b805181602001fd5b6001600160e01b0319811663f23a6e6160e01b1461185a57604051632bfa23e760e11b81526001600160a01b03861660048201526024016106b0565b6001600160a01b0384163b15610a125760405163bc197c8160e01b81526001600160a01b0385169063bc197c8190611c329089908990889088908890600401612874565b6020604051808303816000875af1925050508015611c6d575060408051601f3d908101601f19168201909252611c6a91810190612857565b60015b611c9b573d808015611b77576040519150601f19603f3d011682016040523d82523d6000602084013e611b7c565b6001600160e01b0319811663bc197c8160e01b1461185a57604051632bfa23e760e11b81526001600160a01b03861660048201526024016106b0565b6040518061018001604052806000815260200160006001600160a01b03168152602001600081526020016000815260200160006002811115611d1b57611d1b611ea4565b81526020016000815260200160008152602001600081526020016000815260200160008152602001606081526020016000151581525090565b80356001600160a01b0381168114611d6b57600080fd5b919050565b60008060408385031215611d8357600080fd5b611d8c83611d54565b946020939093013593505050565b6001600160e01b03198116811461020757600080fd5b600060208284031215611dc257600080fd5b8135611dcd81611d9a565b9392505050565b600060408284031215611de657600080fd5b50919050565b600060208284031215611dfe57600080fd5b81356001600160401b03811115611e1457600080fd5b611e2084828501611dd4565b949350505050565b600060208284031215611e3a57600080fd5b5035919050565b60005b83811015611e5c578181015183820152602001611e44565b50506000910152565b60008151808452611e7d816020860160208601611e41565b601f01601f19169290920160200192915050565b602081526000611dcd6020830184611e65565b634e487b7160e01b600052602160045260246000fd5b60038110611ed857634e487b7160e01b600052602160045260246000fd5b9052565b602081528151602082015260006020830151611f0360408401826001600160a01b03169052565b5060408301516060830152606083015160808301526080830151611f2a60a0840182611eba565b5060a083015160c083015260c083015160e083015260e08301516101008181850152808501519150506101208181850152808501519150506101408181850152808501519150506101806101608181860152611f8a6101a0860184611e65565b95015115159301929092525090919050565b634e487b7160e01b600052604160045260246000fd5b604051601f8201601f191681016001600160401b0381118282101715611fda57611fda611f9c565b604052919050565b60006001600160401b03821115611ffb57611ffb611f9c565b5060051b60200190565b600082601f83011261201657600080fd5b8135602061202b61202683611fe2565b611fb2565b8083825260208201915060208460051b87010193508684111561204d57600080fd5b602086015b848110156120695780358352918301918301612052565b509695505050505050565b60006001600160401b0383111561208d5761208d611f9c565b6120a0601f8401601f1916602001611fb2565b90508281528383830111156120b457600080fd5b828260208301376000602084830101529392505050565b600082601f8301126120dc57600080fd5b611dcd83833560208501612074565b600080600080600060a0868803121561210357600080fd5b61210c86611d54565b945061211a60208701611d54565b935060408601356001600160401b038082111561213657600080fd5b61214289838a01612005565b9450606088013591508082111561215857600080fd5b61216489838a01612005565b9350608088013591508082111561217a57600080fd5b50612187888289016120cb565b9150509295509295909350565b600080604083850312156121a757600080fd5b82356001600160401b03808211156121be57600080fd5b818501915085601f8301126121d257600080fd5b813560206121e261202683611fe2565b82815260059290921b8401810191818101908984111561220157600080fd5b948201945b838610156122265761221786611d54565b82529482019490820190612206565b9650508601359250508082111561223c57600080fd5b5061224985828601612005565b9150509250929050565b60008151808452602080850194506020840160005b8381101561228457815187529582019590820190600101612268565b509495945050505050565b602081526000611dcd6020830184612253565b801515811461020757600080fd5b60008083601f8401126122c257600080fd5b5081356001600160401b038111156122d957600080fd5b6020830191508360208285010111156122f157600080fd5b9250929050565b60008060008060008060008060006101008a8c03121561231757600080fd5b8935985060208a0135975060408a0135965060608a0135955060808a0135945060a08a0135935060c08a013561234c816122a2565b925060e08a01356001600160401b0381111561236757600080fd5b6123738c828d016122b0565b915080935050809150509295985092959850929598565b6000806020838503121561239d57600080fd5b82356001600160401b038111156123b357600080fd5b6123bf858286016122b0565b90969095509350505050565b600080604083850312156123de57600080fd5b6123e783611d54565b915060208301356123f7816122a2565b809150509250929050565b60006020828403121561241457600080fd5b611dcd82611d54565b6000806040838503121561243057600080fd5b61243983611d54565b915061244760208401611d54565b90509250929050565b600080600080600060a0868803121561246857600080fd5b61247186611d54565b945061247f60208701611d54565b9350604086013592506060860135915060808601356001600160401b038111156124a857600080fd5b612187888289016120cb565b6000823560be198336030181126124ca57600080fd5b9190910192915050565b60008235601e198336030181126124ca57600080fd5b6000808335601e1984360301811261250157600080fd5b8301803591506001600160401b0382111561251b57600080fd5b6020019150368190038213156122f157600080fd5b60006020828403121561254257600080fd5b81356001600160401b038082111561255957600080fd5b908301906040828603121561256d57600080fd5b60405160408101818110838211171561258857612588611f9c565b60405282358281111561259a57600080fd5b83019150601f820186136125ad57600080fd5b6125bc86833560208501612074565b81526020830135602082015280935050505092915050565b600082516124ca818460208701611e41565b634e487b7160e01b600052603260045260246000fd5b82815260408101611dcd6020830184611eba565b600181811c9082168061262457607f821691505b602082108103611de657634e487b7160e01b600052602260045260246000fd5b60006020828403121561265657600080fd5b8151611dcd816122a2565b634e487b7160e01b600052601160045260246000fd5b80820281158282048414176102d1576102d1612661565b818103818111156102d1576102d1612661565b808201808211156102d1576102d1612661565b601f8211156107b4576000816000526020600020601f850160051c810160208610156126dd5750805b601f850160051c820191505b81811015610a12578281556001016126e9565b81516001600160401b0381111561271557612715611f9c565b612729816127238454612610565b846126b4565b602080601f83116001811461275e57600084156127465750858301515b600019600386901b1c1916600185901b178555610a12565b600085815260208120601f198616915b8281101561278d5788860151825594840194600190910190840161276e565b50858210156127ab5787850151600019600388901b60f8161c191681555b5050505050600190811b01905550565b8183823760009101908152919050565b6000600182016127dd576127dd612661565b5060010190565b6040815260006127f76040830185612253565b82810360208401526128098185612253565b95945050505050565b6001600160a01b03868116825285166020820152604081018490526060810183905260a06080820181905260009061284c90830184611e65565b979650505050505050565b60006020828403121561286957600080fd5b8151611dcd81611d9a565b6001600160a01b0386811682528516602082015260a0604082018190526000906128a090830186612253565b82810360608401526128b28186612253565b905082810360808401526128c68185611e65565b9897505050505050505056fea26469706673582212201346d955c379799af7c7ac2cc81477438a1c8265ddd9bcb0da5fb964a9d31ba864736f6c63430008190033",
  "linkReferences": {},
  "deployedLinkReferences": {}
}