{
  "_format": "hh-sol-artifact-1",
  "contractName": "TestToken",
  "sourceName": "contracts/TestToken.sol",
  "abi": [
    {
      "inputs": [
        {
          "internalType": "string",
          "name": "name_",
          "type": "string"
        },
        {
          "internalType": "string",
          "name": "symbol_",
          "type": "string"
        }
      ],
      "stateMutability": "nonpayable",
      "type": "constructor"
    },
    {
      "inputs": [
        {
          "internalType": "address",
          "name": "spender",
          "type": "address"
        },
        {
          "internalType": "uint256",
          "name": "allowance",
          "type": "uint256"
        },
        {
          "internalType": "uint256",
          "name": "needed",
          "type": "uint256"
        }
      ],
      "name": "ERC20InsufficientAllowance",
      "type": "error"
    },
    {
      "inputs": [
        {
          "internalType": "address",
          "name": "sender",
          "type": "address"
        },
        {
          "internalType": "uint256",
          "name": "balance",
          "type": "uint256"
        },
        {
          "internalType": "uint256",
          "name": "needed",
          "type": "uint256"
        }
      ],
      "name": "ERC20InsufficientBalance",
      "type": "error"
    },
    {
      "inputs": [
        {
          "internalType": "address",
          "name": "approver",
          "type": "address"
        }
      ],
      "name": "ERC20InvalidApprover",
      "type": "error"
    },
    {
      "inputs": [
        {
          "internalType": "address",
          "name": "receiver",
          "type": "address"
        }
      ],
      "name": "ERC20InvalidReceiver",
      "type": "error"
    },
    {
      "inputs": [
        {
          "internalType": "address",
          "name": "sender",
          "type": "address"
        }
      ],
      "name": "ERC20InvalidSender",
      "type": "error"
    },
    {
      "inputs": [
        {
          "internalType": "address",
          "name": "spender",
          "type": "address"
        }
      ],
      "name": "ERC20InvalidSpender",
      "type": "error"
    },
    {
      "anonymous": false,
      "inputs": [
        {
          "indexed": true,
          "internalType": "address",
          "name": "owner",
          "type": "address"
        },
        {
          "indexed": true,
          "internalType": "address",
          "name": "spender",
          "type": "address"
        },
        {
          "indexed": false,
          "internalType": "uint256",
          "name": "value",
          "type": "uint256"
        }
      ],
      "name": "Approval",
      "type": "event"
    },
    {
      "anonymous": false,
      "inputs": [
        {
          "indexed": true,
          "internalType": "address",
          "name": "from",
          "type": "address"
        },
        {
          "indexed": true,
          "internalType": "address",
          "name": "to",
          "type": "address"
        },
        {
          "indexed": false,
          "internalType": "uint256",
          "name": "value",
          "type": "uint256"
        }
      ],
      "name": "Transfer",
      "type": "event"
    },
    {
      "inputs": [
        {
          "internalType": "address",
          "name": "owner",
          "type": "address"
        },
        {
          "internalType": "address",
          "name": "spender",
          "type": "address"
        }
      ],
      "name": "allowance",
      "outputs": [
        {
          "internalType": "uint256",
          "name": "",
          "type": "uint256"
        }
      ],
      "stateMutability": "view",
      "type": "function"
    },
    {
      "inputs": [
        {
          "internalType": "address",
          "name": "spender",
          "type": "address"
        },
        {
          "internalType": "uint256",
          "name": "value",
          "type": "uint256"
        }
      ],
      "name": "approve",
      "outputs": [
        {
          "internalType": "bool",
          "name": "",
          "type": "bool"
        }
      ],
      "stateMutability": "nonpayable",
      "type": "function"
    },
    {
      "inputs": [
        {
          "internalType": "address",
          "name": "account",
          "type": "address"
        }
      ],
      "name": "balanceOf",
      "outputs": [
        {
          "internalType": "uint256",
          "name": "",
          "type": "uint256"
        }
      ],
      "stateMutability": "view",
      "type": "function"
    },
    {
      "inputs": [],
      "name": "decimals",
      "outputs": [
        {
          "internalType": "uint8",
          "name": "",
          "type": "uint8"
        }
      ],
      "stateMutability": "view",
      "type": "function"
    },
    {
      "inputs": [
        {
          "internalType": "uint256",
          "name": "amount",
          "type": "uint256"
        }
      ],
      "name": "mint",
      "outputs": [],
      "stateMutability": "nonpayable",
      "type": "function"
    },
    {
      "inputs": [],
      "name": "name",
      "outputs": [
        {
          "internalType": "string",
          "name": "",
          "type": "string"
        }
      ],
      "stateMutability": "view",
      "type": "function"
    },
    {
      "inputs": [],
      "name": "symbol",
      "outputs": [
        {
          "internalType": "string",
          "name": "",
          "type": "string"
        }
      ],
      "stateMutability": "view",
      "type": "function"
    },
    {
      "inputs": [],
      "name": "totalSupply",
      "outputs": [
        {
          "internalType": "uint256",
          "name": "",
          "type": "uint256"
        }
      ],
      "stateMutability": "view",
      "type": "function"
    },
    {
      "inputs": [
        {
          "internalType": "address",
          "name": "to",
          "type": "address"
        },
        {
          "internalType": "uint256",
          "name": "value",
          "type": "uint256"
        }
      ],
      "name": "transfer",
      "outputs": [
        {
          "internalType": "bool",
          "name": "",
          "type": "bool"
        }
      ],
      "stateMutability": "nonpayable",
      "type": "function"
    },
    {
      "inputs": [
        {
          "internalType": "address",
          "name": "from",
          "type": "address"
        },
        {
          "internalType": "address",
          "name": "to",
          "type": "address"
        },
        {
          "internalType": "uint256",
          "name": "value",
          "type": "uint256"
        }
      ],
      "name": "transferFrom",
      "outputs": [
        {
          "internalType": "bool",
          "name": "",
          "type": "bool"
        }
      ],
      "stateMutability": "nonpayable",
      "type": "function"
    }
  ],
  "bytecode": "0x608060405234801561001057600080fd5b50604051610a70380380610a7083398101604081905261002f91610112565b8181600361003d8382610200565b50600461004a8282610200565b50505050506102bf565b634e487b7160e01b600052604160045260246000fd5b600082601f83011261007b57600080fd5b81516001600160401b038082111561009557610095610054565b604051601f8301601f19908116603f011681019082821181831017156100bd576100bd610054565b81604052838152602092508660208588010111156100da57600080fd5b600091505b838210156100fc57858201830151818301840152908201906100df565b6000602085830101528094505050505092915050565b6000806040838503121561012557600080fd5b82516001600160401b038082111561013c57600080fd5b6101488683870161006a565b9350602085015191508082111561015e57600080fd5b5061016b8582860161006a565b9150509250929050565b600181811c9082168061018957607f821691505b6020821081036101a957634e487b7160e01b600052602260045260246000fd5b50919050565b601f8211156101fb576000816000526020600020601f850160051c810160208610156101d85750805b601f850160051c820191505b818110156101f7578281556001016101e4565b5050505b505050565b81516001600160401b0381111561021957610219610054565b61022d816102278454610175565b846101af565b602080601f831160018114610262576000841561024a5750858301515b600019600386901b1c1916600185901b1785556101f7565b600085815260208120601f198616915b8281101561029157888601518255948401946001909101908401610272565b50858210156102af5787850151600019600388901b60f8161c191681555b5050505050600190811b01905550565b6107a2806102ce6000396000f3fe608060405234801561001057600080fd5b506004361061009e5760003560e01c806370a082311161006657806370a082311461011857806395d89b4114610141578063a0712d6814610149578063a9059cbb1461015e578063dd62ed3e1461017157600080fd5b806306fdde03146100a3578063095ea7b3146100c157806318160ddd146100e457806323b872dd146100f6578063313ce56714610109575b600080fd5b6100ab6101aa565b6040516100b891906105d2565b60405180910390f35b6100d46100cf36600461063d565b61023c565b60405190151581526020016100b8565b6002545b6040519081526020016100b8565b6100d4610104366004610667565b610256565b604051601281526020016100b8565b6100e86101263660046106a3565b6001600160a01b031660009081526020819052604090205490565b6100ab61027a565b61015c6101573660046106c5565b610289565b005b6100d461016c36600461063d565b610296565b6100e861017f3660046106de565b6001600160a01b03918216600090815260016020908152604080832093909416825291909152205490565b6060600380546101b990610711565b80601f01602080910402602001604051908101604052809291908181526020018280546101e590610711565b80156102325780601f1061020757610100808354040283529160200191610232565b820191906000526020600020905b81548152906001019060200180831161021557829003601f168201915b5050505050905090565b60003361024a8185856102a4565b60019150505b92915050565b6000336102648582856102b6565b61026f85858561033a565b506001949350505050565b6060600480546101b990610711565b6102933382610399565b50565b60003361024a81858561033a565b6102b183838360016103d3565b505050565b6001600160a01b03838116600090815260016020908152604080832093861683529290522054600019811015610334578181101561032557604051637dc7a0d960e11b81526001600160a01b038416600482015260248101829052604481018390526064015b60405180910390fd5b610334848484840360006103d3565b50505050565b6001600160a01b03831661036457604051634b637e8f60e11b81526000600482015260240161031c565b6001600160a01b03821661038e5760405163ec442f0560e01b81526000600482015260240161031c565b6102b18383836104a8565b6001600160a01b0382166103c35760405163ec442f0560e01b81526000600482015260240161031c565b6103cf600083836104a8565b5050565b6001600160a01b0384166103fd5760405163e602df0560e01b81526000600482015260240161031c565b6001600160a01b03831661042757604051634a1406b160e11b81526000600482015260240161031c565b6001600160a01b038085166000908152600160209081526040808320938716835292905220829055801561033457826001600160a01b0316846001600160a01b03167f8c5be1e5ebec7d5bd14f71427d1e84f3dd0314c0f7b2291e5b200ac8c7c3b9258460405161049a91815260200190565b60405180910390a350505050565b6001600160a01b0383166104d35780600260008282546104c8919061074b565b909155506105459050565b6001600160a01b038316600090815260208190526040902054818110156105265760405163391434e360e21b81526001600160a01b0385166004820152602481018290526044810183905260640161031c565b6001600160a01b03841660009081526020819052604090209082900390555b6001600160a01b03821661056157600280548290039055610580565b6001600160a01b03821660009081526020819052604090208054820190555b816001600160a01b0316836001600160a01b03167fddf252ad1be2c89b69c2b068fc378daa952ba7f163c4a11628f55a4df523b3ef836040516105c591815260200190565b60405180910390a3505050565b60006020808352835180602085015260005b81811015610600578581018301518582016040015282016105e4565b506000604082860101526040601f19601f8301168501019250505092915050565b80356001600160a01b038116811461063857600080fd5b919050565b6000806040838503121561065057600080fd5b61065983610621565b946020939093013593505050565b60008060006060848603121561067c57600080fd5b61068584610621565b925061069360208501610621565b9150604084013590509250925092565b6000602082840312156106b557600080fd5b6106be82610621565b9392505050565b6000602082840312156106d757600080fd5b5035919050565b600080604083850312156106f157600080fd5b6106fa83610621565b915061070860208401610621565b90509250929050565b600181811c9082168061072557607f821691505b60208210810361074557634e487b7160e01b600052602260045260246000fd5b50919050565b8082018082111561025057634e487b7160e01b600052601160045260246000fdfea26469706673582212205e466af9aa1bbadd60c1ea111babec46670195b978715f495bfaa281a10cb5e264736f6c63430008190033",
  "linkReferences": {},
  "deployedLinkReferences": {}
}